:020000040000FA
:1000000085EF07F01200FFFF04EF10F01200FFFF72
:10001000FFFFFFFFFFFFFFFF0CEF10F01200FFFFDD
:10002000FFFFFFFFFFFFFFFFFFFF00000401105174
:10003000600BE842E842E842E842E842000901E099
:1000400055D01151070A51E00B0A4FE0070A40E072
:10005000010A2CE00B0A28E0020A26E0030A22E04B
:10006000080A12E0010A0EE00F0A0AE0030A01E0A2
:100070003CD00001010EB06F0001040EB76F36D006
:1000800036D834D090D832D00001010EB06F0001C4
:10009000B90EB16F000EB26F0001B8930001010EEE
:1000A000B56F24D0A8D822D0F5D820D00001010EF9
:1000B000B06F040114510001B16FB26BBA0EB127D9
:1000C000000EB2230001B8930001010EB56F0ED0EF
:1000D0000001010EB06F04011451EA6ABA0FE96E13
:1000E000000EEA2212C4EFFF01D000D01200800EF1
:1000F0000401105D57E11351030A34E0010A10E0D6
:10010000030A01E04DD00001010EB06F0001600E46
:10011000B16F0C0EB26F120E0001B56FB66B40D00E
:100120000001010EB06F04011251F66EF76AD8900B
:10013000F636F7369E0EF6260D0EF7220900F5CF9D
:10014000B1F00A00F5CFB2F0020E0001F76AB12556
:10015000F66EB251F7220900F5CFB5F00A00F5CFDF
:10016000B6F01ED00001010EB06F04011251F66E00
:10017000F76AD890F636F736A20EF6260D0EF7225D
:100180000900F5CFB1F00A00F5CFB2F0B1C0F6FF2B
:10019000B2C0F7FF0800F5500001B56FB66B00D094
:1001A0000001B88312000001010EB06F0F0EE66E61
:1001B000710EE66E0F0EE66E1BEC06F0E552E55290
:1001C000E552010EE66EBA0EE66E000EE66E1BEC10
:1001D00006F0E552E552E55212C4B9F0040112519D
:1001E00004E10001050EB76F05D00001060EB76FE0
:1001F000E7EC04F012000401186B196B04011051B4
:100200001F0B020A15E0030A0FE0010A01E034D0D7
:100210000001010EB06F02D0040118810001B8A1E5
:1002200002D00401188328D00001010EB06F24D041
:100230000001010EB06F040114510F0B080DF350B3
:10024000016A000F006E040E01221451800B01E0C0
:10025000010E040DF35000010024B36F000E0120C5
:10026000B46FB3C0E9FFB4C0EAFFEF50040B03E082
:100270000401010E186F00D00001B0050AE1000171
:10028000180EB16F040EB26F0001B8930001020E98
:10029000B56F12000401120510E110511F0B000987
:1002A0000CE10001010EB06F030E0401115D03E1CA
:1002B0000001B88102D00001B891040112513AE165
:1002C00010511F0B020836E114510F0B000932E0E8
:1002D0000001010EB06F040114510F0B080DF35013
:1002E000016A000F006E040E01221451800B01E020
:1002F000010E040DF35000010024B36F000E012025
:10030000B46F030E0401115D07E1840EB3C0E9FF71
:10031000B4C0EAFFEF6E0ED014AF06D0B3C0E9FF51
:10032000B4C0EAFFEF6A06D0880EB3C0E9FFB4C0DC
:10033000EAFFEF6E12006C500BE1040100513C0B20
:10034000E842E8420D0802E108D801D03CD804D0C8
:10035000040E6C5C01E147D81200D9CFE6FFE1CF73
:10036000D9FFE6520001AF6BB06BB56BB66B16EC04
:1003700000F0DF6ADF50006E016A010E005C000EC3
:1003800001581BE20001B05101E017D0F76ADF34D9
:10039000FE0BF736F66EAC0EF6260D0EF7220900B0
:1003A000F5CF00F00800F5CF01F004D001C0FAFF4E
:1003B0000050F96EFBDFDF2ADDD7D5D8E552E552D4
:1003C000E7CFD9FF1200020E0001AF5D0AE192D81B
:1003D000040100BD03D0C80E006F02D0880E006F6C
:1003E00001D007D91200040E0001B75D0AE112C462
:1003F0006EFF6E50000803E2050EB76F02D0030EC9
:10040000B76F0001AF050AE10BD8040104BD03D0AA
:10041000C80E046F02D0880E046F01D0EAD8120013
:10042000D9CFE6FFE1CFD9FF020EE1260001080E89
:10043000B55D000EB65905E2B5C0DEFFB6C0DDFF02
:1004400003D0080EDE6EDD6A040104930491010EF0
:10045000DB500413DFCF05F4000EDB500001B55F65
:10046000010EDB50B65B180EB36F040EB46F0001C3
:10047000B8A31ED0D9CFE9FFDACFEAFFEE50ED10D6
:1004800016E0B1C0F6FFB2C0F7FF0800F550B3C0E8
:10049000E9FFB4C0EAFFEF6E0001B32B000EB423F6
:1004A000B12BB223DF06010E01E2DB06E3D71CD03D
:1004B000D9CFE9FFDACFEAFFEE50ED1015E0B1C079
:1004C000E9FFB2C0EAFFEF50B3C0E9FFB4C0EAFFF2
:1004D000EF6E0001B32B000EB423B12BB223DF0665
:1004E000010E01E2DB06E4D7D9CFE1FFE552E7CF09
:1004F000D9FF1200D9CFE6FFE1CFD9FF020EE126E6
:10050000030E04010015E76E010EE7CFDBFF01C407
:10051000DFFFDE500001B527DD50B623180EB16FA6
:10052000040EB26FD9CFE9FFDACFEAFFEE50ED103B
:1005300014E0B1C0E9FFB2C0EAFFEF50B3C0E9FF79
:10054000B4C0EAFFEF6EB32B000EB423B12BB2237D
:10055000DF06010E01E2DB06E5D7D9CFE1FFE55268
:10056000E7CFD9FF12006D980001B0510CE10401F2
:10057000080E016F100E026F040E036F840E006FE1
:100580000401046F35D0040110AF22D00001B55131
:100590000401165D0001B6510401175904E216C4A6
:1005A000B5F017C4B6F03CDF0001010EAF6F0401D7
:1005B000080E016F100E026F040E036F800E006FA5
:1005C0000401180E066F040E076FC80E046F10D0DA
:1005D0000001020EAF6F0401056BC80E046F040129
:1005E000080E016F180E026F040E036FC80E006F25
:1005F00012000001AF6B0401080E016F100E026FB4
:10060000040E036F880E006F0401046B1200550E78
:10061000A76EAA0EA76EA68212000001420E6A6F94
:10062000020E6B6F010E6C6F12000001606B665161
:10063000605D1EE260C000F0016A026A675100243A
:10064000F36E68510120F46E69510220F86EF4CF08
:10065000F7FFF3CFF6FF0800F5CF61F06051EA6ACB
:100660006A0FE96E000EEA2261C0EFFF602BDFD750
:10067000F86A1200840EA66E0001606B6651605D20
:1006800027E26051EA6A6A0FE96E000EEA22EFCFB4
:1006900003F060C000F0016A026A67510024F36E43
:1006A00068510120F46E69510220F86EF4CFF7FF13
:1006B000F3CFF6FF03C0F5FF0C001F0E60151F08F7
:1006C00003E06605605D01E1A2DF0001602BD6D783
:1006D00012000001606B6651605D20E2940EA66E10
:1006E0006051006E016A060ED89000360136E804AB
:1006F000FBE1026A01BE0268000167510024F36E4B
:1007000068510120F46E69510220F86EF4CFF7FFB2
:10071000F3CFF6FF7CDF0001602BDDD7F86A120013
:10072000A66A0001606B6651605D0EE2675160254C
:10073000A96EA6806051EA6A6A0FE96E000EEA228D
:10074000A8CFEFFF602BEFD712000001606B66515E
:10075000605D13E267516025A96E6051EA6A6A0F15
:10076000E96E000EEA22EF50A86E040EA66E4FDF6F
:10077000A6B2FED70001602BEAD71200C40EA66E07
:100780000001606B6651605D20E26051EA6A6A0FA9
:10079000E96E000EEA22EFCF03F060C000F0016ABC
:1007A000026A67510024F36E68510120F46E6951AA
:1007B0000220F86EF4CFF7FFF3CFF6FF03C0F5FF8A
:1007C0000C0025DF0001602BDDD7F86A1200400E17
:1007D000E66E650EE66E000EE66E36EC05F0E5524E
:1007E000E552E552000870E20001606B00016551BE
:1007F000FF0A57E0FA0A50E0010A3BE0070A34E03A
:10080000010A2DE0030A18E0070A16E0700A01E069
:100810005AD003DF0001040E606F04010CBFFDD746
:10082000400EE66E650EE66E000EE66EFCEC04F021
:10083000E552E552E55248D0F8DE050E000160278A
:1008400004010CBFFDD7400EE66E650EE66E000E8D
:10085000E66EFCEC04F0E552E552E55235D00ADFD5
:100860000001010E606F30D034DF0001010E606FB7
:100870002BD056DF050E0001602704010CBFFDD709
:10088000400EE66E650EE66E000EE66EFCEC04F0C1
:10089000E552E552E55218D058DF0001010E606FB5
:1008A00013D093EC05F00001636B646B00016307E8
:1008B000000E645B00016351641103E0000000005E
:1008C000F5D7FF0001D000D01200040110511F0B1A
:1008D000010801E079D0145101E076D0060E115DD7
:1008E0002EE11351230A28E0010A13E0030A01E074
:1008F00024D00001020EB06F0001B90505E100012E
:10090000840EB16F0C0EB26F090E0001B56FB66B9D
:1009100014D00001020EB06F0001B90505E100011D
:10092000810EB16F0D0EB26F0001B90504E11D0E0D
:100930000001B56FB66B01D000D00001B88304018F
:100940001051600BE842E842E842E842E842010800
:1009500001E03AD011510B0A31E0080A21E0090AFE
:1009600019E0080A09E00B0A05E0080A01E02CD0AA
:100970002CD82AD02BD828D00001020EB06F00014D
:10098000BB0EB16F000EB26F0001B8930001010EF3
:10099000B56F1AD00001020EB06F13C4BBF014D0B3
:1009A0000001020EB06F0001BC0EB16F000EB26FFD
:1009B0000001B8930001010EB56F06D00001020ED0
:1009C000B06F12C4BCF000D012001200120000017F
:1009D000BD6B1E0E716E0401400E096F200E0A6F72
:1009E000040E0B6F880E086F0401600E0E6F040E6C
:1009F0000F6F400E0C6F1200D9CFE6FFE1CFD9FF89
:100A0000E652FC0EDB50400805E2400EF36EFC0E91
:100A1000F3CFDBFFDF6AFC0EDB50DF5C19E2DF5057
:100A2000E76EFD0EDBCFE9FFFE0EDBCFEAFFE750FE
:100A3000E926000EEA22EF50E66EDF50EA6A600F08
:100A4000E96E040EEA22E552E750EF6EDF2AE3D7A3
:100A5000FC0EDBCF0DF4400E04010C170C7D880E4C
:100A60000C13E552E552E7CFD9FF1200D9CFE6FFCC
:100A7000E1CFD9FF0001BD6B040108BF30D0FC0EEF
:100A8000DBCF00F00951D880005403E2FC0E09C40A
:100A9000DBFF0001BD6BFC0EDB50BD5D19E2BD51FB
:100AA000EA6A200FE96E040EEA22EF50E66EBD51AD
:100AB000E76EFD0EDBCFE9FFFE0EDBCFEAFFE7506E
:100AC000E926000EEA22E552E750EF6EBD2BE3D790
:100AD0000401400E096F0817087D880E08130001F5
:100AE000BD5100D0E552E7CFD9FF12006DA60FD857
:100AF00002D06DB613D80001B70508E16DBA06D073
:100B0000686A696A69806988020EB76F12006D6A47
:100B1000696A6D860001010EB76F12006D6A696A1D
:100B20000001B76B12008EEF05F00001B75101E133
:100B30003AD06850040B04E06950040B01E038D847
:100B40006DB231D06850010B04E06950010B01E037
:100B500050D86850100B04E06950100B01E024D805
:100B60006850400B04E06950400B01E037D86850F2
:100B7000200B04E06950200B01E032D86850020BD2
:100B800004E06950020B01E032D8030E0001B75DAA
:100B900001E209D06850080B06E06950080B03E039
:100BA0009BEC01F068961200698468986D821200CF
:100BB0006D926994689412000001B8A10ED0F8DF1C
:100BC0006D840001080EBE6F070EBF6FBE07000EDA
:100BD000BF5BBE51BF11FAE16D941200689C120018
:100BE00070A003D0F9EC02F07090689A120068923D
:100BF00012006A6A686A9F0E6B6E7B0E696E6E6A7F
:100C00000F0EE66E710EE66E0F0EE66E14D8E5520C
:100C1000E552E552160E706E68A602D06896FCD7B3
:100C20006D98F9EC02F00001B8910001B96B000178
:100C3000030EB76F1200D9CFE6FFE1CFD9FFFD0E4B
:100C4000DBCFE9FFFE0EDBCFEAFFFC0EDB5004E05A
:100C5000EE6AFC0EDB06F9D7E552E7CFD9FF1200AA
:100C60001201000200000008D80433000100010254
:100C70000302090229000101028032090400000276
:100C800003000000092101000001221D0007058169
:100C90000340000107050103400001090220000193
:100CA000020480320904000002FF000000070581F1
:100CB0000340000107050103400001040309043457
:100CC000034D006900630072006F006300680069F3
:100CD000007000200054006500630068006E006F23
:100CE000006C006F0067007900200049006E00630F
:100CF000002E0048035000490043006B0069007457
:100D0000002000320020004D006900630072006F77
:100D10000063006F006E00740072006F006C006C66
:100D200000650072002000500072006F00670072C2
:100D30000061006D006D00650072001603500049EF
:100D400000430031003800460032003500350030E5
:100D50000030035000490043006B0069007400201C
:100D6000003200200043006F006E006600670075CF
:100D70000072006100740069006F006E0020003294
:100D8000000600FF0901A10119012940150026FFF5
:100D900000750895408102190129409102C0720C2A
:100DA0009B0CBB0CBF0CF30C3B0D510DCA082A0E5B
:100DB000F66E000EF76E000EF86E00010900F55099
:100DC000AA6F0900F550AB6F03E1AA6701D03DD0CF
:100DD0000900F550A56F0900F550A66F0900F55000
:100DE000A76F09000900F550E96E0900F550EA6E99
:100DF000090009000900F550A86F0900F550A96F16
:100E000009000900F6CFACF0F7CFADF0F8CFAEF0A7
:100E1000A5C0F6FFA6C0F7FFA7C0F8FF0001A853C2
:100E200002E1A95307E00900F550EE6EA807F8E2C9
:100E3000A907F9D7ACC0F6FFADC0F7FFAEC0F8FF09
:100E40000001AA07000EAB5BBFD71200D9CFE6FFA7
:100E5000E1CFD9FF030EE126938A818AF19E580ED5
:100E6000E66E6EEC07F0E55281AA0DD0FE0EF66E2E
:100E70007F0EF76EF86A0800F550DF6E550EDF5CE6
:100E800002E100EF10F018D822D8E7EC03F0D950B7
:100E9000010FE96EDACFEAFFEE50ED1001E18B7041
:100EA000010EDB06020E01E2DB06EED7D9CFE1FF31
:100EB000E552E7CFD9FF1200140E6F6E0001B76B39
:100EC0000001B86B0001B96B8B909490120076EC26
:100ED00005F06FBE02D095EC05F01200FF0EE35056
:100EE000076EEF0E01D0F30EE76EE72E75EF07F0F9
:100EF0000C0E066EE76AE72E7BEF07F0062E7AEF00
:100F000007F0072E73EF07F0120013EE00F023EE48
:100F100000F0F86A059CD7EC06F026EC07F0FDD748
:100F20001200FFFFFFFFFFFFFFFFFFFFFFFFFFFFBD
:100F3000FFFFFFFFFFFFFFFFFFFFFFFFFFFFFFFFC1
:100F4000FFFFFFFFFFFFFFFFFFFFFFFFFFFFFFFFB1
:100F5000FFFFFFFFFFFFFFFFFFFFFFFFFFFFFFFFA1
:100F6000FFFFFFFFFFFFFFFFFFFFFFFFFFFFFFFF91
:1020000096EF2EF012000000CAEF2AF01200000036
:102010000000000000000000CAEF2AF012000000DB
:10202000FFFFFFFFFFFFFFFFFFFF01005A5D000002
:10203000F500000002000000D9CFE6FFE1CFD9FF94
:10204000E652030ED26EA194A084928092820D0E6D
:10205000C16E030EC06E928480948994928680969D
:10206000899692888998899A929A8A9693968A886C
:102070009398938A818AF19E8A9493948B909490FA
:102080008B9294928B949494949C8B8C0201EB6B26
:102090000201010EEC6F0201030EE06F0201E16B21
:1020A0000201010EE26FDF6A400EDF5C10E2DF50DA
:1020B000EA6A000FE96E020EEA22EF6ADF50EA6A6E
:1020C000400FE96E020EEA22EF6ADF2AEDD7F3EC49
:1020D00017F00201E36B0201E46B0201E56BE66BB2
:1020E0000201E76B0201E86B0201E96BEA6B7BEC32
:1020F00015F00201400ED880F655010EF7550EE39B
:102100000201C00EF65D000EF75908E30201F95115
:10211000AF0804E3500E0201F95D09E20201F66B1B
:10212000010EF76F0201F86B0201800EF96F080EC5
:10213000D56E040ECA6E4F0ECB6E0C0EBD6E1D0E0C
:10214000BE6E0201400EF36F02013E0EF46F0201FB
:102150003C0EF56F02017E0EED6F02012D0EEE6F4B
:10216000070EB46EB56A76EC1BF0F28CF28EC0EC02
:102170002BF0E552E552E7CFD9FF1200D9CFE6FFA9
:10218000E1CFD9FFE652DF6A81BA02D00201EB8DBE
:102190000201ECB381D9400EE66E000EE66E020E2F
:1021A000E66E81EC2AF0E552E552E552000801E3C3
:1021B0006ED1DF50EA6A000FE96E020EEA22EF509C
:1021C000AF0A01E15BD1010A01E155D1020A01E147
:1021D0004ED1070A01E147D1010A01E140D1030ACA
:1021E00001E134D1010A01E127D10F0A01E11BD13C
:1021F000010A01E1F7D0030A01E1DCD0010A01E1A3
:10220000CFD0070A01E1C8D0010A01E1C1D0120A0A
:1022100001E189D0110A5CE0010A36E0120A2BE0E4
:10222000030A20E0050A1BE0070A10E0F10A0BE0B0
:10223000340A05E02C0A01E024D1DF2A24D15DEC28
:102240001BF0DF2A20D117EC1BF01DD1DF2AD9CFDC
:10225000E6FFDACFE6FF52D9E552E55214D1DF2A84
:1022600096D911D1DF2AD9CFE6FFDACFE6FF2FDAF0
:10227000E552E55208D1DF2AD9CFE6FFDACFE6FFF3
:1022800096D9E552E552FFD0DF28EA6A000FE96EE1
:10229000020EEA22EF50E66E020EDF24EA6A000F19
:1022A000E96E020EEA22EF50E66E95DAE552E5524B
:1022B000030EDF24EA6A000FE96E020EEA22EF50F5
:1022C000E66EB2DBE5520201ED6F040EDF26DBD0D5
:1022D000DF28EA6A000FE96E020EEA22EFCFF3F27E
:1022E000020EDF24EA6A000FE96E020EEA22EF50C6
:1022F000E66E9ADBE552010F0201F46F020E020155
:10230000F45D0201F56F030EDF24EA6A000FE96E47
:10231000020EEA22EF50E66E87DBE5520201EE6F15
:10232000040EDF26B0D0DF28EA6A000FE96E020E45
:10233000EA22EF500201F66FF76B020EDF24EA6A21
:10234000000FE96E020EEA22EFCF1EF01F6A1EBEDA
:102350001F681EC01FF01E6A1E500201F6271F5084
:102360000201F723030EDF24EA6A000FE96E020E72
:10237000EA22EFCFF8F2040EDF24EA6A000FE96EDA
:10238000020EEA22EFCFF9F293DB050EDF267BD0B7
:102390002FEC1BF0DF2A77D058EC16F0DF2A73D031
:1023A000DF2AD9CFE6FFDACFE6FF8FEC18F0E5524F
:1023B000E55269D0DF2ADF28EA6A000FE96E020ED3
:1023C000EA22EF50E66EDF50EA6A000FE96E020E75
:1023D000EA22EF50E66EA2EC17F0E552E552020E4B
:1023E000DF2651D0DF2ADF50EA6A000FE96E020EC5
:1023F000EA22EF50E66EDF281F6A000F1E6E020E03
:102400001F221EC0E6FF1FC0E6FFC5EC1BF0E55211
:10241000E552E552DF50EA6A000FE96E020EEA2249
:10242000EF28DF2630D00201E36B0201E46B0201EA
:10243000E56BE66BDF2A27D0DF2AD9CFE6FFDACFBC
:10244000E6FF0EEC18F0E552E5521DD00201E76BF5
:102450000201E86B0201E96BEA6BDF2A14D0E1ECC0
:1024600016F0DF2A10D0F3EC17F0DF2A0CD044EC82
:1024700017F0DF2A08D0FF00DF2A05D062DBDF2A51
:1024800002D0400EDF6E400EDF5C01E292D6E552D4
:10249000E552E7CFD9FF1200D9CFE6FFE1CFD9FF50
:1024A000E6521D501AE01D50DF6E1D6A1A50E66E8E
:1024B000ACEC23F0E552DF50010805E21B50E66E5C
:1024C000ACEC23F0E552DF50020805E21C50E66E4A
:1024D000ACEC23F0E5521D50E6E10201E551E611B6
:1024E00008E0A050020B05E1E1EC23F0196EA18297
:1024F000A082E552E552E7CFD9FF1200D9CFE6FF1F
:10250000E1CFD9FFF29ED5EC2BF0FD0EDBCFE9FF3A
:10251000FE0EDBCFEAFFEF50EF2AEA6A000FE96E0A
:10252000020EEA22EF50146EFD0EDBCFE9FFFE0E25
:10253000DBCFEAFFEF50EF2AEA6A000FE96E020EE6
:10254000EA22EF50156E166A176A186A196A1A6A33
:102550001D6A0201EC8392968986928492888A94FD
:10256000899A2E0EB46EA50EB56E0C0EE66EA2EC18
:102570002EF0E5529D90A092910ECD6E910EB16E0F
:10258000A19CA08CF28EE552E7CFD9FF1200F29EFB
:102590000201EC93A09C9D90A092CD6AB16A070EB7
:1025A000B46EB56A9286C0EC2BF0F28E1200D9CFD1
:1025B000E6FFE1CFD9FF050EE126FD0EDBCFE9FFF7
:1025C000FE0EDBCFEAFFEF50EF2AEA6A000FE96E5A
:1025D000020EEA22040EEFCFDBFFFD0EDBCFE9FF98
:1025E000FE0EDBCFEAFFEF50EF2AEA6A000FE96E3A
:1025F000020EEA22EF50E66ED950020FE96EDACFF2
:10260000EAFFE552E750EE6EED6AD950020FE96E2F
:10261000DACFEAFF200ED880EE54000EED5407E228
:10262000200EF36E020EF3CFDBFF030EDB6AD950F0
:10263000020FE96EDACFEAFFEE50ED1001E13BD078
:10264000DE6ADD6ADECF1EF0DDCF1FF0020EDBCFCB
:1026500020F0030EDBCF21F020501E5C21501F58CC
:102660001AE2040EDBCFF3FFDB2AF350E66E70ECC8
:1026700026F0E552E66EDECFE9FFDDCFEAFF400E41
:10268000E926020EEA22E552E750EF6EDF2A010E3C
:1026900001E3DB2AD7D704010CBFFDD7400EE66E5D
:1026A000400EE66E020EE66E45EC2AF0E552E5526B
:1026B000E552FBEC2BF0F56E050EE15C02E2E16AFF
:1026C000E552E16EF550E552E7CFD9FF1200D9CFC0
:1026D000E6FFE1CFD9FF050EE126FD0EDBCFE9FFD6
:1026E000FE0EDBCFEAFFEF50EF2AEA6A000FE96E39
:1026F000020EEA22040EEFCFDBFFFD0EDBCFE9FF77
:10270000FE0EDBCFEAFFEF50EF2AEA6A000FE96E18
:10271000020EEA22EF50E66ED950020FE96EDACFD0
:10272000EAFFE552E750EE6EED6AD950020FE96E0E
:10273000DACFEAFF200ED880EE54000EED5407E207
:10274000200EF36E020EF3CFDBFF030EDB6AD950CF
:10275000020FE96EDACFEAFFEE50ED1001E12FD063
:10276000DE6ADD6ADECF1EF0DDCF1FF0020EDBCFAA
:1027700020F0030EDBCF21F020501E5C21501F58AB
:102780001EE2FD0EDBCFE9FFFE0EDBCFEAFFEF50CE
:10279000EF2AEA6A000FE96E020EEA22EF50E66EB7
:1027A000040EDBCFF3FFDB2AF350E66E4EEC26F08F
:1027B000E552E552DF2A010E01E3DB2AD3D7F56E9D
:1027C000050EE15C02E2E16AE552E16EF550E55288
:1027D000E7CFD9FF1200D9CFE6FFE1CFD9FF030E33
:1027E000E126FE0EDB50216E226A21C022F0216A12
:1027F000FD0EDB50000121241E6E000E22201F6EF4
:10280000206A1FBE20681EC0DFFF010E1FC0DBFF55
:10281000020E20C0DBFFD9CFE9FFDACFEAFF060EB8
:10282000E76ED890020EEB32010EEB32EF32E70684
:10283000F8E1F8C21EF01F6A206A1EAE02D01F68BF
:102840002068D9CFE9FFDACFEAFF1E50EE261F50ED
:10285000EE222050EE22F9C21EF01F6A206AD9CF64
:10286000E9FFDACFEAFF1EC00AF01FC00BF020C05C
:102870000CF0EECF05F0EECF06F0EFCF07F08BECCB
:102880002DF004C0EDFF03C0EDFF02C0EFFFD9CF74
:10289000E9FFDACFEAFFD890020EEB32010EEB32FD
:1028A000EF32080E216ED9CFE9FFDACFEAFF2150CF
:1028B0001F0BEECF1EF0EECF1FF0EECF20F006E0A4
:1028C000D89020321F321E32E806FAE11E50BE6E4A
:1028D000D9CFE9FFDACFEAFFEE52EE6AEE6ACF0E09
:1028E000BD14216E226A236A020E276ED9CFE9FF3A
:1028F000DACFEAFF27501F0BEECF24F0EECF25F002
:10290000EECF26F006E0D890263225322432E806B3
:10291000FAE1215024101E6E225025101F6E235004
:102920002610206E1E50BD6EF56E030EE15C02E2B5
:10293000E16AE552E16EF550E552E7CFD9FF1200AA
:10294000D9CFE6FFE1CFD9FF040EE126FD0EDBCFA4
:102950001EF0FE0EDBCF1FF0000E1EC0DBFF010ECF
:102960001FC0DBFF020EDB6A030EDB6AF6C21EF03D
:10297000F7C21FF0206A216AD9CFE9FFDACFEAFF58
:102980001EC009F01FC00AF020C00BF021C00CF0DF
:10299000EECF04F0EECF05F0EECF06F0EFCF07F06C
:1029A00023EC2EF003C0EDFF02C0EDFF01C0EDFFF0
:1029B00000C0EFFFD9CFE9FFDACFEAFF080EE76EDC
:1029C000D890030EEB32020EEB32010EEB32EF32F7
:1029D000E706F6E1D9CFE9FFDACFEAFFD880FF0EAC
:1029E000EE54FF0EEE54000EEE54000EEE5406E2CE
:1029F000DE68DE68DE6ADD6ADD52DD52DFCF1EF0A2
:102A0000010EDBCF1FF01EC0F3FF1FC0F4FF00D08C
:102A1000F56E040EE15C02E2E16AE552E16EF5500A
:102A2000E552E7CFD9FF1200D9CFE6FFE1CFD9FFBA
:102A3000020EE126F6C21EF0F7C21FF0000ED8808B
:102A40001E56020E1F561EC0DEFF1FC0DDFFFE0E0B
:102A5000DB501E6E1F6AD9CFE9FFDACFEAFF1EC036
:102A60000BF01FC00CF0EECF06F0EDCF07F06DECD1
:102A70002DF004C0EEFF05C0EDFFD9CFE9FFDACF9E
:102A8000EAFF080E0F0B06E0EC52D890ED32EF3261
:102A9000E806FAE1DF5000D0F56E020EE15C02E2DA
:102AA000E16AE552E16EF550E552E7CFD9FF120039
:102AB000F6C2E6FFE66A4EEC26F0E552E552F7C2B2
:102AC0001EF01F6A1E50E66E010EE66E4EEC26F0FA
:102AD000E552E552F8C2E6FF020EE66E4EEC26F035
:102AE000E552E552F9C2E6FF030EE66E4EEC26F023
:102AF000E552E5521200E66A70EC26F0E55202015A
:102B0000F66FF76B010EE66E70EC26F0E5521E6E66
:102B10001F6A1EC01FF01E6A1E500201F6271F50BA
:102B20000201F723020EE66E70EC26F0E552020178
:102B3000F86F030EE66E70EC26F0E5520201F96FB5
:102B40001200D9CFE6FFE1CFD9FF060EE126DE6AFB
:102B5000DD6A020EDB6A030EDB6A040EDB6A050E19
:102B6000DB6A040EDBCF1EF0050EDBCF1FF0D89022
:102B70001F5004E6200E1E5C000E1F581EE2040EBD
:102B8000DBCFE9FF050EDBCFEAFF030EEA02F3CF4E
:102B9000EAFF030EE902F3CFE9FFF450EA26800EC4
:102BA000E926020EEA22EF50DE26000EDD22040E98
:102BB000DB2A050E01E3DB2AD4D7040EDB6A050EFF
:102BC000DB6A040EDBCF1EF0050EDBCF1FF0DECF7D
:102BD00020F0DDCF21F01F502118E8AE02D02134C3
:102BE00004D020501E5C21501F581EE2040EDB5002
:102BF0000001F5250F01E96E050EDB500001F621FD
:102C00000F01EA6EEF501E6E1F6AD950020FE96E77
:102C1000DACFEAFF1E50EE261F50ED22040EDB2A0B
:102C2000050E01E3DB2ACDD7DECF1EF0DDCF1FF08E
:102C30001E500201406FDECF1EF0DDCF1FF01FC01F
:102C40001EF01F6A1EC041F2FF0EE76E020EDBCFC0
:102C50001EF0030EDBCF1FF0E7501E161F6A1EC0CA
:102C600042F2020EDBCF1EF0030EDBCF1FF01FC0BF
:102C70001EF01F6A1EC043F204010CBFFDD7400EB8
:102C8000E66E400EE66E020EE66E45EC2AF0E55268
:102C9000E552E552FBEC2BF0F56E060EE15C02E22C
:102CA000E16AE552E16EF550E552E7CFD9FF120037
:102CB000D9CFE6FFE1CFD9FF020EE126D5EC2BF00C
:102CC000040EE66E70D8E552C450206E216A20C012
:102CD00021F0206AC350000120241E6E000E212026
:102CE0001F6E1EC0DEFF1FC0DDFFDECFE6FFDDCFA3
:102CF000E6FF26DEE552E552F3CFDEFFF4CFDDFF3F
:102D0000DFCF40F2DECF1EF0DDCF1FF01FC01EF080
:102D10001F6A1EC041F2E66A46D8E552C450206ED2
:102D2000216A20C021F0206AC350000120241E6EB9
:102D3000000E21201F6E1EC0DEFF1FC0DDFFDECF94
:102D4000E6FFDDCFE6FFFCDDE552E552F3CFDEFF27
:102D5000F4CFDDFFDFCF42F2DECF1EF0DDCF1FF07C
:102D60001FC01EF01F6A1EC043F204010CBFFDD736
:102D7000400EE66E400EE66E020EE66E45EC2AF060
:102D8000E552E552E552FBEC2BF0C0EC2BF0F56E72
:102D9000020EE15C02E2E16AE552E16EF550E552B5
:102DA000E7CFD9FF1200D9CFE6FFE1CFD9FFFE0E62
:102DB000DB28C26EC282C2B2FED7E552E7CFD9FF8E
:102DC0001200D9CFE6FFE1CFD9FF020EE126010EB6
:102DD000E9C2DBFF010EDB503F0803E2DE523F0E8B
:102DE000DD6E010EDBCF40F2010EDF6E010EDB5017
:102DF000D880DF5423E30201E851E82BEA6A600F30
:102E0000E96E000EEA22EF50E66EDF50EA6A400FEC
:102E1000E96E020EEA22E552E750EF6E0201E85138
:102E20001E6E1F6AD8901F5004E6800E1E5C000EB6
:102E30001F5802E30201E86BDF2AD8D7010EDB50EE
:102E40001E6E1F6A1E500201E95F1F500201EA5BFD
:102E500004010CBFFDD7400EE66E400EE66E020E7A
:102E6000E66E45EC2AF0E552E552E552FBEC2BF01C
:102E7000F56E020EE15C02E2E16AE552E16EF550A8
:102E8000E552E7CFD9FF1200D9CFE6FFE1CFD9FF56
:102E9000020EE126010EE9C2DBFF010EDB50400805
:102EA00003E2DE52400EDD6EDF6A010EDB50DF5CB6
:102EB00023E20201E851E82BEA6A600FE96E000E96
:102EC000EA22EF50E66EDF50EA6A400FE96E020E2A
:102ED000EA22E552E750EF6E0201E8511E6E1F6ACA
:102EE000D8901F5004E6800E1E5C000E1F5802E3AF
:102EF0000201E86BDF2AD9D7010EDB501E6E1F6A74
:102F00001E500201E95F1F500201EA5B04010CBF81
:102F1000FDD7400EE66E400EE66E020EE66E45EC04
:102F20002AF0E552E552E552FBEC2BF0F56E020E6D
:102F3000E15C02E2E16AE552E16EF550E552E7CF6D
:102F4000D9FF1200D9CFE6FFE1CFD9FF200EF36EF3
:102F5000FE0EDBCFF4FFF350F45C0DE2FE0EDB500F
:102F6000030DF3CFE9FFF4CFEAFF800EE926020E4E
:102F7000EA22EF5003E10201EC8B31D0FE0EDB5070
:102F8000030DF3CFE9FFF4CFEAFF800EE926020E2E
:102F9000EA22EF50E66EFE0EDB50030DF3CFE9FFA1
:102FA000F4CFEAFF800EE926020EEA22EE5200017B
:102FB0000001F551EE241E6E00010001F651EE20D5
:102FC0001F6E1EC0E6FF1FC0E6FFDFDBE552E552C5
:102FD000E552FD0EDB06FD0EDB500008CFE3E552A7
:102FE000E7CFD9FF1200D9CFE6FFE1CFD9FFE652F4
:102FF000DF6A200EDF5C0DE2DF50030DF3CFE9FF47
:10300000F4CFEAFF800EE926020EEA22EF6ADF2AF9
:10301000F0D7E552E552E7CFD9FF1200D9CFE6FF4E
:10302000E1CFD9FF040EE126FD0EDBCFE9FFFE0E56
:10303000DBCFEAFFEF50EF2AEA6A000FE96E020EDB
:10304000EA22EF50E66ED950020FE96EDACFEAFFBE
:10305000E552E750EE6EED6A020EDB500201E52507
:1030600000011E6E030EDB500201E62100011F6EFF
:10307000000ED8801E54010E1F5403E20201EC8F93
:1030800042D0DE6ADD6ADECF1EF0DDCF1FF0020E19
:10309000DBCF20F0030EDBCF21F020501E5C21504F
:1030A0001F5831E2FD0EDBCFE9FFFE0EDBCFEAFF5A
:1030B000EF50EF2AEA6A000FE96E020EEA22EF50A3
:1030C000E66E0201E351E32BEA6A000FE96E010E9E
:1030D000EA22E552E750EF6E0201E3511E6E1F6ACD
:1030E000D8901F5004E6000E1E5C010E1F5802E32C
:1030F0000201E36B0201E52B000EE623DF2A010E3D
:1031000001E3DB2AC0D7F56E040EE15C02E2E16A5E
:10311000E552E16EF550E552E7CFD9FF1200D9CF65
:10312000E6FFE1CFD9FF080EE126FD0EDBCFE9FF78
:10313000FE0EDBCFEAFFEF28EA6A000FE96E020E0F
:10314000EA22EFCF1EF01F6A1EBE1F68040E1EC0CB
:10315000DBFF050E1FC0DBFF040EDBCF1EF0050EEC
:10316000DBCF1FF01F3404E21E503D08000E1F5439
:1031700003E20201EC8D4FD2FD0EDBCFE9FFFE0E24
:10318000DBCFEAFFEF50EA6A000FE96E020EEA2297
:10319000EFCF1EF01F6A1EBE1F68060E1EC0DBFFAB
:1031A000070E1FC0DBFF020EDB6A030EDB6ADE6A5E
:1031B000DD6ADECF1EF0DDCF1FF0D8901F5004E691
:1031C000200E1E5C000E1F5823E2DECFE9FFDDCF8C
:1031D000EAFF030EEA02F3CFEAFF030EE902F3CFA0
:1031E000E9FFF450EA26800EE926020EEA22EF50AB
:1031F0001E6E1F6AD950020FE96EDACFEAFF1E5029
:10320000EE261F50ED22DF2A010E01E3DB2AD1D783
:10321000060EDBCFE9FF070EDBCFEAFF030EEA0263
:10322000F3CFEAFF030EE902F3CFE9FFF450EA26F9
:10323000800EE926020EEA22EF501E6E1F6AD95058
:10324000020FE96EDACFEAFF1E50EE5E1F50ED5A14
:10325000040EDBCF1EF0050EDBCF1FF0020EDBCF1E
:1032600020F0030EDBCF21F0000ED8802056030E95
:10327000215621501F18E8AE02D01F3404D01E5032
:10328000205C1F50215803E20201EC8DC4D1060ED0
:10329000DBCF1EF0070EDBCF1FF01F3404E21E5001
:1032A0001F08000E1F5403E20201EC8DB4D1060E7C
:1032B000DBCFE9FF070EDBCFEAFF030EEA02F3CF15
:1032C000EAFF030EE902F3CFE9FFF450EA26800E8D
:1032D000E926020EEA22EF5001E106D1060EDBCF0D
:1032E000E9FF070EDBCFEAFF030EEA02F3CFEAFFA6
:1032F000030EE902F3CFE9FFF450EA26800EE92637
:10330000020EEA22EF501E6E1F6A000ED8801E5673
:10331000030E1F561E06000E1F5A040E1EC0DBFFB2
:10332000050E1FC0DBFF060EDBCFE9FF070EDBCF6C
:10333000EAFF030EEA02F3CFEAFF030EE902F3CF3E
:10334000E9FFF450EA26800EE926020EEA22EE5248
:10335000EECFDEFFEDCFDDFFDECF1EF0DDCF1FF0C5
:10336000040EDBCF20F0050EDBCF21F01F5021181B
:10337000E8AE02D0213404D020501E5C21501F58EA
:1033800035E2060EDBCFE9FF070EDBCFEAFF030EC7
:10339000EA02F3CFEAFF030EE902F3CFE9FFF450AC
:1033A000EA26800EE926020EEA22EF5000011F6A8B
:1033B000F5251E6EF6511F22DE501E24E96EDD50EB
:1033C0001F20EA6EEF50E66EDE500001F5250F017A
:1033D000E96EDD500001F6210F01EA6EE552E7507B
:1033E000EF6EDF2A010E01E3DB2AB6D7DE6ADD6A63
:1033F000DECF1EF0DDCF1FF0D8901F5004E6200E68
:103400001E5C000E1F5870E2DECFE9FFDDCFEAFF41
:10341000030EEA02F3CFEAFF030EE902F3CFE9FF5E
:10342000F450EA26800EE926020EEA22EECF1EF0C4
:10343000EECF1FF0EFCF20F0060EDBCFE9FF070E37
:10344000DBCFEAFF030EEA02F3CFEAFF030EE90245
:10345000F3CFE9FFF450EA26800EE926020EEA22B5
:10346000EE52EECF21F0EFCF22F0000122502018D3
:10347000E8AE02D0203404D01F50215C20502258E6
:103480002EE2060EDBCFE9FF070EDBCFEAFF030ECD
:10349000EA02F3CFEAFF030EE902F3CFE9FFF450AB
:1034A000EA26800EE926020EEA22EF501E6E1F6AFF
:1034B000DECFE9FFDDCFEAFF030EEA02F3CFEAFF3A
:1034C000030EE902F3CFE9FFF450EA26800EE92665
:1034D000020EEA22EE521E50EE5E1F50ED5ADF2A17
:1034E000010E01E3DB2A84D7FD0EDBCFE9FFFE0EE0
:1034F000DBCFEAFFEF28EA6A000FE96E020EEA224C
:10350000EF50E66E060EDBCFE9FF070EDBCFEAFFDA
:10351000030EEA02F3CFEAFF030EE902F3CFE9FF5D
:10352000F450EA26800EE926020EEA22E552E75020
:10353000EF6E060EDBCFE9FF070EDBCFEAFF030ECF
:10354000EA02F3CFEAFF030EE902F3CFE9FFF450FA
:10355000EA26800EE926020EEA22EE52020EDBCFA8
:10356000EEFF030EDBCFEDFF020E1E6EFD0EDBCF76
:10357000E9FFFE0EDBCFEAFF1E50EF26DE6ADD6AB2
:10358000DECF1EF0DDCF1FF0060EDBCFE9FF070E0A
:10359000DBCFEAFF030EEA02F3CFEAFF030EE902F4
:1035A000F3CFE9FFF450EA26800EE926020EEA2264
:1035B000EF5000011FAE02D0D89003D01E5C000E69
:1035C0001F5829E2FD0EDBCFE9FFFE0EDBCFEAFF3D
:1035D000EF50EF2AEA6A000FE96E020EEA22EF507E
:1035E000E66E020EDB500001F52500011E6E030E93
:1035F000DB500001F62100011F6EDE501E24E96E33
:10360000DD501F20EA6EE552E750EF6EDF2A010E13
:1036100001E3DB2AB5D7F56E080EE15C02E2E16A50
:10362000E552E16EF550E552E7CFD9FF1200F29E68
:10363000F9EC2BF0840EA66EFE0EF66E7F0EF76E82
:10364000F86AF56A0C00550EA76EAA0EA76EA68240
:103650004E0EE66E5BEC2EF0E552FF001200F00E0F
:103660000201EB1781A402D00201EB8780AA02D0ED
:103670000201EB8581B802D00201EB8381A602D062
:103680000201EB81EBC240F2ECC241F28F0E02016B
:10369000EB170201EC6B8B9004010CBFFDD7400EC1
:1036A000E66E400EE66E020EE66E45EC2AF0E5523E
:1036B000E552E552FBEC2BF012000201020E406FC6
:1036C00002010A0E416F0201426B04010CBFFDD7DB
:1036D000400EE66E400EE66E020EE66E45EC2AF0F7
:1036E000E552E552E552FBEC2BF01200D9CFE6FF94
:1036F000E1CFD9FF040EE126020EF36E010EF3CFE7
:10370000DBFF020EDB6A300EF36E030EF3CFDBFF3E
:10371000010EDBCFF6FF020EDBCFF7FF030EDBCF90
:10372000F8FF0800F550DF6E060EDF141E6E000E67
:10373000E76E1E18E8AE02D01E3403D0E750D880E2
:103740001E5416E2C40EA66E000EDB92DB94010E30
:10375000DBCFF6FF020EDBCFF7FF030EDBCFF8FF68
:10376000DFCFF5FF0C00550EA76EAA0EA76EA6823E
:10377000F86AF56E040EE15C02E2E16AE552E16E80
:10378000F550E552E7CFD9FF1200D9CFE6FFE1CFE0
:10379000D9FF0B0EE126DF6A090EDB6A0A0EDB6A2F
:1037A000F29A070ED56EFC0EDB5004E0FC0EDB50E7
:1037B0003D0804E20201EC8BC8EF21F0FE0E02018D
:1037C000EC1502E0C8EF21F0FC0EDB50DF5C02E3F9
:1037D000C8EF21F0DF50E76EFD0EDBCFE9FFFE0EF4
:1037E000DBCFEAFFE750E926000EEA22EF50F10AAC
:1037F00001E110D21F0A01E1E5D11C0A01E1CBD1A0
:10380000020A01E1BCD11D0A01E1A0D1010A01E1D6
:1038100084D10B0A01E16CD10E0A01E123D1020A25
:1038200001E10BD1040A01E100D1320A01E190D09B
:10383000370A01E17BD0190A62E01B0A4BE01C0A3F
:1038400045E0010A3FE0030A39E0010A33E00F0ACC
:103850002CE0010A25E0030A1FE0010A19E0070A2B
:1038600013E0010A0DE0030A07E0010A01E0DDD1DF
:103870008A98DF2AC6EF21F08A88DF2AC6EF21F076
:103880008A86DF2AC6EF21F08A96DF2AC6EF21F06A
:103890008A84DF2AC6EF21F08A94DF2AC6EF21F05E
:1038A0000C0EBA6EDF2AC6EF21F0BA6A8B92DF2ABD
:1038B000C6EF21F0898ADF2AC6EF21F0899ADF2A34
:1038C000C6EF21F08B80DF2AC6EF21F08B90DF2A34
:1038D000C6EF21F0DF2ADF50E76EFD0EDBCFE9FFF8
:1038E000FE0EDBCFEAFFE750E926000EEA22EF509A
:1038F000E66EE8EC22F0E552DF2AC6EF21F0DF2A7F
:10390000DF50E76EFD0EDBCFE9FFFE0EDBCFEAFFF7
:10391000E750E926000EEA22EFCFE0F2E0C2E6FF30
:1039200081EC24F0E552DF2AC6EF21F0DF2ADF50D8
:10393000E76EFD0EDBCFE9FFFE0EDBCFEAFFE750BF
:10394000E926000EEA22EFCFE1F2DF2AC6EF21F0EE
:103950000A0EDB5018E0050EDB06060E01E2DB0660
:10396000D950050FE96EDACFEAFFEE50ED1006E10F
:103970000A0EDB6A020EDF26C6EF21F0040EDB50D2
:10398000DF6EC6EF21F0DF50E76EFD0EDBCFE9FF03
:10399000FE0EDBCFEAFFE750E926000EEA22010E19
:1039A000E926000EEA22EF50DF5CE76E040EE7CF57
:1039B000DBFFE1EC23F0E66ED950050FE96EDACFBC
:1039C000EAFFE552E750EE6EED6AE1EC23F0206E7F
:1039D000216A066A010E076E20C00BF021C00CF0B0
:1039E00040EC2DF004C01EF005C01FF0D950050FAB
:1039F000E96EDACFEAFF1E50EE261F50ED22D950B5
:103A0000050FE96EDACFEAFFEE50ED1004E1020E89
:103A1000DF26C6EF21F0010EF36E0A0EF3CFDBFFB7
:103A2000040EDB50DF6EC6EF21F0080EE66E63EC8D
:103A300023F0E552DF2AC6EF21F0DF2ADF50E76EE0
:103A4000FD0EDBCFE9FFFE0EDBCFEAFFE750E926F4
:103A5000000EEA22EF50E66E63EC23F0E552DF2A17
:103A6000C6EF21F0090EDB5010E0020EDB06020E5D
:103A7000DB5006E1090EDB6A030EDF26C6EF21F0FC
:103A8000030EDB50DF6EC6EF21F0010EF36E090E60
:103A9000F3CFDBFFDF50E76EFD0EDBCFE9FFFE0E5D
:103AA000DBCFEAFFE750E926000EEA22010EE92605
:103AB000000EEA22EF50DF5CE76E030EE7CFDBFF7C
:103AC000DF50E76EFD0EDBCFE9FFFE0EDBCFEAFF36
:103AD000E750E926000EEA22020EE926000EEA224D
:103AE000020EEFCFDBFF030EDB50DF6EC6EF21F0DF
:103AF000DF2ADF50E76EFD0EDBCFE9FFFE0EDBCFE6
:103B0000EAFFE750E926000EEA22EF50E66EFBECF2
:103B100022F0E552DF2AC6EF21F0DF2ADF50E76E00
:103B2000FD0EDBCFE9FFFE0EDBCFEAFFE750E92613
:103B3000000EEA22EF50E66E63EC23F0E552E66EEB
:103B4000ACEC23F0E552DF2AC6EF21F0DF2ADF508C
:103B5000E76EFD0EDBCFE9FFFE0EDBCFEAFFE7509D
:103B6000E926000EEA22EF50E66EE1EC23F0E66E65
:103B700011EC24F0E552E552DF2AC6EF21F0080EE1
:103B8000E66E63EC23F0E552E66EACEC23F0E55212
:103B9000DF2AC6EF21F0DF2A080EE66EDF50E76E5F
:103BA000FD0EDBCFE9FFFE0EDBCFEAFFE750E92693
:103BB000000EEA22EF50E66E11EC24F0E552E552D9
:103BC000DF2AE4D3DF2ADF50E76EFD0EDBCFE9FF0B
:103BD000FE0EDBCFEAFFE750E926000EEA22EF50A7
:103BE000E66EDF50E76EFD0EDBCFE9FFFE0EDBCFAA
:103BF000EAFFE750E926000EEA22010EE926000E50
:103C0000EA22EF50E66E11EC24F0E552E552020E86
:103C1000DF26BCD3080EE66EE1EC23F0E66E11EC75
:103C200024F0E552E552DF2AB1D3DF50E76EFD0EF6
:103C3000DBCFE9FFFE0EDBCFEAFFE750E926000EFF
:103C4000EA22EFCF1EF0D00E1E5C01E2DED2DF5082
:103C5000E76EFD0EDBCFE9FFFE0EDBCFEAFFE7509C
:103C6000E926000EEA22EF50E30A01E1CAD2350A42
:103C700001E1BED2080A01E1B5D2010A01E19FD2F9
:103C80003F0A01E196D2390A01E14FD2030A01E16C
:103C90001CD2020A01E1FFD10F0A01E1DFD1030AC0
:103CA00001E1A8D1070A01E16FD1310A01E147D151
:103CB000030A01E111D1050A01E1FAD0010A01E18B
:103CC000BFD0030A01E185D03A0A01E17AD00C0A9B
:103CD00060E0010A36E0040A1CE00E0A16E0090A58
:103CE00001E08FD2DF2ADF50E76EFD0EDBCFE9FF68
:103CF000FE0EDBCFEAFFE750E926000EEA22EF5086
:103D0000E66E52DBE552DF2A7FD2E1EC23F0DF2AB8
:103D10007BD2DF2ADF50E76EFD0EDBCFE9FFFE0E20
:103D2000DBCFEAFFE750E926000EEA22EF50E66E0D
:103D30001AEC23F0E552E66EACEC23F0E552DF2AF4
:103D400063D2DF2ADF50E76EFD0EDBCFE9FFFE0E08
:103D5000DBCFEAFFE750E926000EEA22EF50E66EDD
:103D6000DF50E76EFD0EDBCFE9FFFE0EDBCFEAFF93
:103D7000E750E926000EEA22010EE926000EEA22AB
:103D8000EF50E66E49EC24F0E552E552020EDF26D4
:103D90003BD2DF2ADF50E76EFD0EDBCFE9FFFE0EE0
:103DA000DBCFEAFFE750E926000EEA22EF50E66E8D
:103DB000E1EC23F0E66E49EC24F0E552E552DF2A0F
:103DC00023D2A1EC24F0E66EACEC23F0E552DF2A1E
:103DD0001BD20201E705EA6A600FE96E000EEA22D3
:103DE000010EEFCFDBFFDF50E76EFD0EDBCFE9FF0B
:103DF000FE0EDBCFEAFFE750E926000EEA22010EB5
:103E0000E926000EEA22EF50F36E010EDB50F35C60
:103E100014E1DF50E76EFD0EDBCFE9FFFE0EDBCFD6
:103E2000EAFFE750E926000EEA22020EE926000E1C
:103E3000EA22EF50DF24DF6E02D0030EDF26E4D14A
:103E40000201E705EA6A600FE96E000EEA22010E40
:103E5000EFCFDBFF010EDBCF1EF0DF50E76EFD0E74
:103E6000DBCFE9FFFE0EDBCFEAFFE750E926000ECD
:103E7000EA22010EE926000EEA22EF50D8801E54F5
:103E800014E2DF50E76EFD0EDBCFE9FFFE0EDBCF65
:103E9000EAFFE750E926000EEA22020EE926000EAC
:103EA000EA22EF50DF24DF6E02D0030EDF26ACD112
:103EB000DF50E76EFD0EDBCFE9FFFE0EDBCFEAFF42
:103EC000E750E926000EEA22010EE926000EEA225A
:103ED000EF50DF24DF6E98D1DF2ADF50DF2AE76E54
:103EE000FD0EDBCFE9FFFE0EDBCFEAFFE750E92650
:103EF000000EEA22EF501F6A000F1E6E0F0E1F22E7
:103F0000070E1EC0DBFF080E1FC0DBFFDF50DF2ADD
:103F1000E76EFD0EDBCFE9FFFE0EDBCFEAFFE750D9
:103F2000E926000EEA22EF50E66E070EDBCFE9FF2E
:103F3000080EDBCFEAFFE552E750EF6E65D1DF2ACE
:103F4000DF50E76EFD0EDBCFE9FFFE0EDBCFEAFFB1
:103F5000E750E926000EEA22EF501F6A000F1E6E9E
:103F60000F0E1F22070E1EC0DBFF080E1FC0DBFF57
:103F7000070EDBCFE9FF080EDBCFEAFFEF50E66E5E
:103F8000EBDBE552DF2A40D1DF2A040EE66EE66A5B
:103F900011EC24F0E552E552040EE66EDF50E76EB8
:103FA000FD0EDBCFE9FFFE0EDBCFEAFFE750E9268F
:103FB000000EEA22EF50E66E11EC24F0E552E552D5
:103FC000080EE66EE1EC23F0E66E11EC24F0E5520B
:103FD000E552080EE66EE66A11EC24F0E552E55271
:103FE000040EE66E020EE66E11EC24F0E552E55288
:103FF000DF2A0AD1DF2A040EE66EE66A11EC24F00D
:10400000E552E552040EE66EDF50E76EFD0EDBCFA3
:10401000E9FFFE0EDBCFEAFFE750E926000EEA22B9
:10402000EF50E66E11EC24F0E552E552080EE66E14
:10403000C8DBE66E11EC24F0E552E552080EE66EA0
:10404000C0DBE66EEEDBE552E552040EE66E020ED4
:10405000E66EE7DBE552E552DF2AD6D0DF2A040E12
:10406000E66E010EE66EDDDBE552E552080EE66E09
:10407000E66AD7DBE552E552080EE66EDBDAE5527A
:10408000E66E6ADBE552080EE66ED4DAE552E66EBD
:1040900063DBE552B9D0DF2A040EE66EE66AC1DBC7
:1040A000E552E552080EE66EE66ABBDBE552E552E4
:1040B000080EE66EE66AB5DBE552E552080EE66EDE
:1040C000E66AAFDBE552E5529FD0DF2A040EE66ECA
:1040D000E66AA7DBE552E552080EE66EDF50DF2AFE
:1040E000E76EFD0EDBCFE9FFFE0EDBCFEAFFE75008
:1040F000E926000EEA22EF50E66E93DBE552E55228
:10410000080EE66EDF50DF2AE76EFD0EDBCFE9FF1B
:10411000FE0EDBCFEAFFE750E926000EEA22EF5061
:10412000E66E7FDBE552E5526FD0DF2A040EE66EC5
:10413000E66A77DBE552E552080EE66EDF50DF2ACD
:10414000E76EFD0EDBCFE9FFFE0EDBCFEAFFE750A7
:10415000E926000EEA22EF50E66E63DBE552E552F7
:10416000080EE66EDF50DF2AE76EFD0EDBCFE9FFBB
:10417000FE0EDBCFEAFFE750E926000EEA22EF5001
:10418000E66E4FDBE552E552080EE66EDF50DF2AA1
:10419000E76EFD0EDBCFE9FFFE0EDBCFEAFFE75057
:1041A000E926000EEA22EF50E66E3BDBE552E552CF
:1041B0002BD0DF2A9CD9E66ECFDAE55225D0DF2A54
:1041C000DF50DF2AE76EFD0EDBCFE9FFFE0EDBCF0F
:1041D000EAFFE750E926000EEA22EF50E66E09D921
:1041E000E55212D0DF2AEDDAE66E03D9E5520CD0A3
:1041F000DF2A080EE66E1EDAE552E66EADDAE5520B
:1042000003D0FC0EDB50DF6EC1D0DF50E76EFD0E39
:10421000DBCFE9FFFE0EDBCFEAFFE750E926000E19
:10422000EA22EF50C30A01E1A3D0070A01E189D0D5
:10423000010A01E17DD0030A74E0010A5EE00F0A81
:1042400052E0010A47E0030A3FE0010A2AE0070AB8
:1042500025E0010A20E0030A18E0010A01E093D0FA
:10426000DF2ADF50E76EFD0EDBCFE9FFFE0EDBCF6E
:10427000EAFFE750E926000EEA22EFCFE2F2E2C2BF
:10428000E6FF72DBE552DF2A81D082DBE66E64DA7C
:10429000E552DF2A7BD08DDBDF2A78D09FDBDF2A57
:1042A00075D0DF2ADF50E76EFD0EDBCFE9FFFE0E93
:1042B000DBCFEAFFE750E926000EEA22EF50E66E78
:1042C000A2DBE552DF2A62D0DF2A7BDAE66E9BDBD7
:1042D000E5525CD0E66A8AEC25F0E552E66E3CDAFF
:1042E000E552DF2A53D00F0EE66E8AEC25F0E55238
:1042F000E66E32DAE552DF2A49D0DF2ADF50E76E78
:10430000FD0EDBCFE9FFFE0EDBCFEAFFE750E9262B
:10431000000EEA22EF50E66E10EC26F0E552DF2A9E
:1043200035D0DF2A4EDAE66E10EC26F0E5522ED0BC
:10433000E66A10EC26F0E552E66E0EDAE552DF2A68
:1043400025D0DF2ADF50E76EFD0EDBCFE9FFFE0E42
:10435000DBCFEAFFE750E926000EEA22EF50E66ED7
:1043600010EC26F0E552E66EF7D9E552DF2A0ED0C2
:10437000DF2A27DAE66E10EC26F0E552E66EECD97D
:10438000E552DF2A03D0FC0EDB50DF6EDEEF1BF0C0
:10439000F56E0B0EE15C02E2E16AE552E16EF5506A
:1043A000E552E7CFD9FF1200D9CFE6FFE1CFD9FF21
:1043B0000201E351E32BEA6A000FE96E010EEA22E3
:1043C000FE0EDBCFEFFF0201E3511E6E1F6AD89095
:1043D0001F5004E6000E1E5C010E1F5802E302018E
:1043E000E36B0201E52B000EE623E552E7CFD9FF90
:1043F0001200D9CFE6FFE1CFD9FFF29ECD90A40EF7
:10440000D76E730ED66EF294D58E8050080B04E1F1
:10441000F250040B01E1F9D7F2B45DD08994929483
:10442000600EE66E88EC2EF0E55289848050080B11
:1044300004E0F250040B01E1F9D7F2B44CD0FE0EC7
:10444000DB505C6EF2B646D080A6FCD789945CBE89
:10445000898480B6FED7F2B63DD080A6FCD7899479
:104460005CBC898480B6FED7F2B634D080A6FCD777
:1044700089945CBA898480B6FED7F2B62BD080A628
:10448000FCD789945CB8898480B6FED7F2B622D076
:1044900080A6FCD789945CB6898480B6FED7F2B634
:1044A00019D080A6FCD789945CB4898480B6FED7E5
:1044B000F2B610D080A6FCD789945CB2898480B60D
:1044C000FED7F2B607D080A6FCD789945CB0898469
:1044D00080B6FED70000F2A402D00201EC85D59E82
:1044E000F28ECD8000D0E552E7CFD9FF1200CD90FB
:1044F000F29EA40ED76E730ED66EF294D58E8050B7
:10450000080B04E1F250040B01E1F9D7F2B454D0E6
:1045100089949294600EE66E88EC2EF0E5528984C0
:104520008050080B04E0F250040B01E1F9D79284AB
:10453000F2B442D05C6AF2B63ED080A6FCD780B618
:10454000FED780B45C8EF2B636D080A6FCD780B69B
:10455000FED780B45C8CF2B62ED080A6FCD780B695
:10456000FED780B45C8AF2B626D080A6FCD780B68F
:10457000FED780B45C88F2B61ED080A6FCD780B689
:10458000FED780B45C86F2B616D080A6FCD780B683
:10459000FED780B45C84F2B60ED080A6FCD780B67D
:1045A000FED780B45C82F2B606D080A6FCD780B677
:1045B000FED780B45C80000089849294F2A402D07B
:1045C0000201EC85D59EF28ECD805C5000D01200A9
:1045D000D9CFE6FFE1CFD9FFF294FE0EDB50FF0DFD
:1045E000F350D76ED66AD58EF2A4FED7D59EE5528B
:1045F000E7CFD9FF1200D9CFE6FFE1CFD9FFF29480
:10460000D768080EE66EA2EC2EF0E552FE0EDB0433
:1046100002E10CD002D0FE0EDB06FE0EDB50FF0DD9
:10462000F350D66ED58EF2A4FED7D59EE552E7CFD5
:10463000D9FF1200D9CFE6FFE1CFD9FFE65292842D
:104640005C6AFE0EDB505D6E020E0201E15D0CE263
:1046500080B45C808986000000000000899600001C
:104660005C425D2EF5D718D00201E1055E6E5E500A
:1046700080B45C808986000000000000000000001B
:10468000E82EFBD789965E50000000000000E82E5F
:10469000FBD75C425D2EEBD7FE0EDBCFE6FF080EAC
:1046A000E552D880E754070B04E05C425C9EE806C4
:1046B000FCE10201E0A392945C5000D0E552E55287
:1046C000E7CFD9FF1200D9CFE6FFE1CFD9FFE652FD
:1046D00092845C6AFE0EDB505D6E020E0201E15DAB
:1046E0000CE2898600000000000080B45C8089969E
:1046F00000005C425D2EF5D718D00201E1055E6E28
:104700008986000000005E50000000000000E82ED6
:10471000FBD780B45C8089965E50000000000000EA
:10472000E82EFBD75C425D2EEBD7FE0EDBCFE6FF1B
:10473000080EE552D880E754070B04E05C425C9E0B
:10474000E806FCE10201E0A392945C5000D0E5523F
:10475000E552E7CFD9FF1200D9CFE6FFE1CFD9FF6D
:10476000010E02011F6AE9251E6EEA511F22800E0A
:10477000D8801E54000E1F5403E20201EC871DD0A6
:104780000201E751E72BEA6A600FE96E000EEA22A8
:10479000FE0EDBCFEFFF0201E7511E6E1F6AD890BD
:1047A0001F5004E6800E1E5C000E1F5802E302013B
:1047B000E76B0201E92B000EEA23E552E7CFD9FFB0
:1047C0001200D9CFE6FFE1CFD9FFE6520201E55151
:1047D000E61104E10201EC89000E1ED00201E45151
:1047E000E42BEA6A000FE96E010EEA22EFCFDFFF49
:1047F0000201E507000EE65B0201E4511E6E1F6A2E
:10480000D8901F5004E6000E1E5C010E1F5802E3F4
:104810000201E46BDF5000D0E552E552E7CFD9FF4B
:104820001200D9CFE6FFE1CFD9FFE652FE0EDB50F2
:104830005C6EFD0EDB505D6E020E0201E15D0CE26E
:104840005CA089945CB08984000089860000899608
:104850005C425D2EF5D718D00201E1055E6E5CA0CA
:1048600089945CB089845E50000000000000E82E4E
:10487000FBD789865E50000000000000E82EFBD7C1
:1048800089965C425D2EEBD7E552E552E7CFD9FF22
:104890001200D9CFE6FFE1CFD9FFE652FE0EDB5082
:1048A0005C6EFD0EDB505D6E020E0201E15D0CE2FE
:1048B0005CA089945CB08984898600008996000098
:1048C0005C425D2EF5D718D00201E1055E6E5CA05A
:1048D00089945CB089845E508986000000000000E5
:1048E000E82EFBD789965E50000000000000E82EFD
:1048F000FBD75C425D2EEBD7E552E552E7CFD9FFFF
:104900001200D9CFE6FFE1CFD9FFFE0EDBA402D023
:10491000898601D08996FE0EDBA602D0898401D05B
:104920008994FE0EDBA002D0928601D09296FE0EF4
:10493000DBA202D0928401D09294E552E7CFD9FF56
:104940001200D9CFE6FFE1CFD9FFE652DF6A80B48B
:10495000DF8280A602D0000EDB80DF5000D0E5525F
:10496000E552E7CFD9FF1200D9CFE6FFE1CFD9FF5B
:10497000FE0EDBA202D0898801D08998FE0EDBA052
:1049800002D0928801D09298E552E7CFD9FF120069
:10499000D9CFE6FFE1CFD9FFE652DF6A80A802D087
:1049A000000EDB80DF5000D0E552E552E7CFD9FFA3
:1049B00012008986060EE66EA2EC2EF0E55289986A
:1049C0009298060EE66EA2EC2EF0E5528996060E3F
:1049D000E66EA2EC2EF0E552928812008996060E41
:1049E000E66EA2EC2EF0E55289989298060EE66EDD
:1049F000A2EC2EF0E5528986060EE66EA2EC2EF0B1
:104A0000E55292881200D9CFE6FFE1CFD9FFFE0E22
:104A1000DB505C6E080E5D6E8998020E0201E15D4E
:104A200034E25CAE92985CBE928800000000000008
:104A30000000000000008986000000000000000067
:104A40000000000000000000000089960000000047
:104A50000000000000005C465D2EE3D79288000055
:104A60000000000000000000000000000000000046
:104A70000000898600000000000000000000000027
:104A8000000080B85D8089963CD00201E151E824A5
:104A9000FF0F5E6E5CAE92985CBE92885E50000026
:104AA000000000000000000000000000E82EF7D722
:104AB00089865E5000000000000000000000000039
:104AC000E82EFCD7899600005C465D2EE3D79288DD
:104AD0005E50000000000000000000000000000028
:104AE0000000000000000000E82EF7D789865E5025
:104AF0000000000000000000E82EFCD780B85D80B8
:104B000089965D50000802E20201EC85E552E7CF8C
:104B1000D9FF1200D9CFE6FFE1CFD9FF5C6A080EBA
:104B20005D6E010E5E6E9288020E0201E15D1EE274
:104B30005C460000000000000000000000000000D3
:104B40000000000089860000000000000000000056
:104B50000000000080B85C80899600000000000022
:104B60000000000000005D2EE3D731D00201E151CA
:104B7000E824FF0F5E6E5C460000000000005E50FF
:104B80000000000000000000000000000000E82E0F
:104B9000F7D789865E500000000000000000E82E74
:104BA000FCD780B85C808996000000005D2EE3D7BA
:104BB00000005E5000000000000000000000000047
:104BC00000000000000000000000E82EF7D78998E0
:104BD000FE0EDB5001E192985E50000000000000E4
:104BE00000000000000000000000000000000000C5
:104BF000E82EF7D789865E50000000000000000014
:104C0000E82EFCD70000000089960000000000009C
:104C1000000092885C5000D0E552E7CFD9FF120027
:104C2000D9CFE6FFE1CFD9FFE652FE0EDB505C6E36
:104C3000080E5D6E020E0201E15D0DE25CAE899828
:104C40005CBE898889865C465C9080B45C8089966D
:104C50005D2EF4D71BD00201E1055E6E5CAE899833
:104C60005CBE89885E50000000000000E82EFBD783
:104C700089865C465C9080B45C805E5000000000D9
:104C80000000E82EFBD789965D2EE8D789985C5006
:104C900000D0E552E552E7CFD9FF1200D9CFE6FFA9
:104CA000E1CFD9FFE652DF6AFE0EDB50A96EFD0EA2
:104CB000DB50A86EA66AA684F2AE02D0010EDF6EAB
:104CC000F29E550EA76EAA0EA76EA682DF0401E122
:104CD000F28EA6B2FED7E552E552E7CFD9FF120019
:104CE000D9CFE6FFE1CFD9FFFE0EDB50A96EA66A51
:104CF000A680A85000D0E552E7CFD9FF12006C5033
:104D00000BE1040100513C0BE842E8420D0802E1CE
:104D100008D801D03ED804D0040E6C5C01E14BD819
:104D20001200D9CFE6FFE1CFD9FFE6520001EA6BCE
:104D30000001EB6B0001F06BF16B17EC28F0DF6A00
:104D4000DF501E6E1F6A010E1E5C000E1F581BE214
:104D50000001EB5101E017D0F76ADF34FE0BF736A4
:104D6000F66E7E0EF6265A0EF7220900F5CF1EF0DB
:104D70000800F5CF1FF004D01FC0FAFF1E50F96ED7
:104D8000FBDFDF2ADDD7F4D8E552E552E7CFD9FFC4
:104D90001200020E0001EA5D0CE1A6D8040100BD7C
:104DA00004D00401C80E006F03D00401880E006F08
:104DB00001D02DD91200040E0201FA5D0CE112C4DB
:104DC0006EFF6E50000804E20201050EFA6F03D078
:104DD0000201030EFA6F0001EA050CE10DD804018F
:104DE00004BD04D00401C80E046F03D00401880E72
:104DF000046F01D00CD91200D9CFE6FFE1CFD9FF63
:104E0000020EE1260001080EF05D000EF15905E2E8
:104E1000F0C0DEFFF1C0DDFF03D0080EDE6EDD6AFC
:104E20000401049304010491010EDB5004010413F6
:104E3000DFCF05F4000EDB500001F05F010EDB5008
:104E40000001F15B0001180EEE6F040EEF6F02011E
:104E5000FBA320D0D9CFE9FFDACFEAFFEE50ED1067
:104E600018E0ECC0F6FFEDC0F7FF0800F550EEC00B
:104E7000E9FFEFC0EAFFEF6E0001EE2B000EEF231B
:104E80000001EC2B000EED23DF06010E01E2DB0634
:104E9000E1D71ED0D9CFE9FFDACFEAFFEE50ED100F
:104EA00017E0ECC0E9FFEDC0EAFFEF50EEC0E9FF0C
:104EB000EFC0EAFFEF6E0001EE2B000EEF230001C2
:104EC000EC2B000EED23DF06010E01E2DB06E2D73C
:104ED000F56E020EE15C02E2E16AE552E16EF55028
:104EE000E552E7CFD9FF1200D9CFE6FFE1CFD9FFD6
:104EF000020EE126030E04010015E76E010EE7CF56
:104F0000DBFF01C4DFFFDE500001F027DD500001B0
:104F1000F1230001180EEC6F040EED6FD9CFE9FFFD
:104F2000DACFEAFFEE50ED1017E0ECC0E9FFEDC07C
:104F3000EAFFEF50EEC0E9FFEFC0EAFFEF6E0001BD
:104F4000EE2B000EEF230001EC2B000EED23DF060D
:104F5000010E01E2DB06E2D7F56E020EE15C02E231
:104F6000E16AE552E16EF550E552E7CFD9FF120054
:104F70006D980001EB510FE10401080E016F04016F
:104F8000100E026F040E036F0401840E006F040103
:104F9000840E046F3BD0040110AF25D00001F05106
:104FA0000401165D0001F1510401175904E216C411
:104FB000F0F017C4F1F020DF0001010EEA6F0401E8
:104FC000080E016F0401100E026F040E036F04013E
:104FD000800E006F0401180E066F040E076F0401A7
:104FE000C80E046F13D00001020EEA6F0401056BB6
:104FF0000401C80E046F0401080E016F0401180EAD
:10500000026F040E036F0401C80E006F120000014E
:10501000EA6B0401080E016F0401100E026F040E0A
:10502000036F0401880E006F0401046B1200040179
:105030001051600BE842E842E842E842E8420009C9
:1050400001E058D004011151070A53E00B0A51E066
:10505000070A42E0010A2CE00B0A28E0020A26E0D7
:10506000030A22E0080A12E0010A0EE00F0A0AE031
:10507000030A01E03ED00001010EEB6F0201040EB5
:10508000FA6F38D038D836D093D834D00001010E1A
:10509000EB6F0001FC0EEC6F020EED6F0201FB9353
:1050A0000001010EF06F26D0ABD824D0FAD822D060
:1050B0000001010EEB6F040114510001EC6FED6B68
:1050C000FD0E0001EC27020E0001ED230201FB930F
:1050D0000001010EF06F0ED00001010EEB6F040114
:1050E0001451EA6AFD0FE96E020EEA2212C4EFFFC4
:1050F00001D000D01200800E0401105D58E10401BF
:105100001351030A34E0010A10E0030A01E04DD014
:105110000001010EEB6F0001300EEC6F590EED6FC8
:10512000120E0001F06FF16B40D00001010EEB6F29
:1051300004011251F66EF76AD890F636F736700E03
:10514000F6265A0EF7220900F5CFECF00A00F5CF4B
:10515000EDF0020E0001F76AEC25F66EED51F72234
:105160000900F5CFF0F00A00F5CFF1F01ED00001F4
:10517000010EEB6F04011251F66EF76AD890F63605
:10518000F736740EF6265A0EF7220900F5CFECF02A
:105190000A00F5CFEDF0ECC0F6FFEDC0F7FF080018
:1051A000F5500001F06FF16B00D00201FB8312009B
:1051B0000001010EEB6F0F0EE66E710EE66E0F0E24
:1051C000E66E83EC2CF0E552E552E552010EE66EF8
:1051D000FD0EE66E020EE66E83EC2CF0E552E55213
:1051E000E55212C4FCF20401125104E10201050E61
:1051F000FA6F05D00201060EFA6F2DEC2AF01200AC
:105200000401186B0401196B040110511F0B020AF1
:1052100015E0030A0FE0010A01E035D00001010E9C
:10522000EB6F02D0040118810201FBA102D004013E
:10523000188329D00001010EEB6F25D00001010E6B
:10524000EB6F040114510F0B080DF3501F6A000F90
:105250001E6E040E1F2204011451800B01E0010E8A
:10526000040DF35000011E24EE6F000E1F20EF6F9F
:10527000EEC0E9FFEFC0EAFFEF50040B03E00401CA
:10528000010E186F00D00001EB050AE10001180EB5
:10529000EC6F040EED6F0201FB930001020EF06F44
:1052A00012000401120511E1040110511F0B000945
:1052B0000CE10001010EEB6F030E0401115D03E12F
:1052C0000201FB8102D00201FB91040112513EE177
:1052D000040110511F0B020839E1040114510F0B96
:1052E000000934E00001010EEB6F040114510F0BB3
:1052F000080DF3501F6A000F1E6E040E1F220401DA
:105300001451800B01E0010E040DF35000011E2426
:10531000EE6F000E1F20EF6F030E0401115D07E119
:10532000840EEEC0E9FFEFC0EAFFEF6E0FD004017C
:1053300014AF06D0EEC0E9FFEFC0EAFFEF6A06D077
:10534000880EEEC0E9FFEFC0EAFFEF6E1200040125
:1053500010511F0B010801E07DD00401145101E040
:1053600079D0060E0401115D2FE104011351230AC7
:1053700028E0010A13E0030A01E024D00001020E34
:10538000EB6F0201FC0505E10001540EEC6F590EB4
:10539000ED6F090E0001F06FF16B14D00001020EE9
:1053A000EB6F0201FC0505E10001530EEC6F5A0E94
:1053B000ED6F0201FC0504E11D0E0001F06FF16BC1
:1053C00001D000D00201FB8304011051600BE842C0
:1053D000E842E842E842E842010801E03BD004012B
:1053E00011510B0A31E0080A21E0090A19E0080A04
:1053F00009E00B0A05E0080A01E02CD02CD82AD0DD
:105400002BD828D00001020EEB6F0001F20EEC6FDA
:10541000000EED6F0201FB930001010EF06F1AD038
:105420000001020EEB6F13C4F2F014D00001020E63
:10543000EB6F0001F30EEC6F000EED6F0201FB93BA
:105440000001010EF06F06D00001020EEB6F12C4D6
:10545000F3F000D01200120012000001F46B1E0ED7
:10546000716E0401400E096F0401200E0A6F040ED4
:105470000B6F0401880E086F0401600E0E6F040E9E
:105480000F6F0401400E0C6F1200D9CFE6FFE1CF81
:10549000D9FFE652FC0EDB50400805E2400EF36EE9
:1054A000FC0EF3CFDBFFDF6AFC0EDB50DF5C19E2A2
:1054B000DF50E76EFD0EDBCFE9FFFE0EDBCFEAFF2C
:1054C000E750E926000EEA22EF50E66EDF50EA6A66
:1054D000600FE96E040EEA22E552E750EF6EDF2A14
:1054E000E3D7FC0EDBCF0DF4400E04010C170401D2
:1054F0000C7D880E04010C13E552E552E7CFD9FF6D
:105500001200D9CFE6FFE1CFD9FF0001F46B04010F
:1055100008BF39D0FC0EDBCF1EF004010951D88042
:105520001E5403E2FC0E09C4DBFF0001F46BFC0E09
:10553000DB500001F45D1CE20001F451EA6A200F27
:10554000E96E040EEA22EF50E66E0001F451E76EB8
:10555000FD0EDBCFE9FFFE0EDBCFEAFFE750E926C9
:10556000000EEA22E552E750EF6E0001F42BDFD780
:105570000401400E096F400E040108170401087D64
:10558000880E040108130001F45100D0E552E7CF62
:10559000D9FF1200D8CFE4FFE0CFE4FFE46EDACF0A
:1055A000E4FFE2CFDAFFE6520201ECA37CD0A15087
:1055B000400B1DE0A050400B1AE0B4BE17D0A09CD9
:1055C000CD981550CF6E480E1424286E296A000E0F
:1055D0002922293404E22850FF08000E295401E250
:1055E000CF2A480E1424CE6E9E909D80A19C9E5082
:1055F000010B31E09D50010B2EE01550CF6E145081
:10560000CE6E9E9016500AE1CD88B4AE04D09D9027
:10561000A19CA08C02D08B80162A1DD016500808A1
:1056200015E2B4AE0DD01DA003D017501B6E07D0ED
:105630001DA203D017501C6E02D017501A6E1D2ADF
:105640008B90166A9D90A19CA08C05D01790174254
:10565000B4BE178E162AA150020B24E0A050020BF4
:1056600021E01550B36E1450B26EA192185004E1AF
:105670008996182A8B8016D0090E185C03E189865A
:10568000182A10D01850090804E2186AA0928B90CA
:1056900009D0010E1914E8B08986E8A08996182A65
:1056A0001990194262D09EA035D09E90FA0ECF6E0E
:1056B000380ECE6E8150100B10E10201ED51C45C2A
:1056C0000CE20C0E0201EF5D05E18A948A8802016A
:1056D000EB8902D00201EF2B02D00201EF6B300EFA
:1056E0000201EB1512E00201F1C228F0F2C229F02A
:1056F000F12B000EF2239B0ED8802854020E295461
:1057000004E28B700201F16BF26B9E9C010EC26E83
:105710009D8CC2829EAC29D09E9C0C0EBA5C21E16D
:105720000201F451D880C45401E2BB6A0201F55170
:10573000C45C02E2F3C2BBFF8150040B10E0020123
:10574000EE51C45C0CE20C0E0201F05D05E18A949E
:105750008A880201EB8B02D00201F02B02D00201F9
:10576000F06B050EC26E9D9CC282A1B4FF00E55293
:10577000E5CFDAFFE550E5CFE0FFE5CFD8FF100039
:105780000201EF6B0201F06B800ECD6EFA0ECF6E50
:10579000380ECE6E9E909D80CD809E9C9D9C260E48
:1057A000C06E050EC26EC28212009D90CD90C26A7C
:1057B0009E9C9D9C12006DA610D802D06DB614D888
:1057C0000201FA0509E16DBA07D0686A696A698061
:1057D00069880201020EFA6F12006D6A696A6D86AD
:1057E0000201010EFA6F12006D6A696A0201FA6B1A
:1057F0001200FADF12000201FA5101E13AD06850BA
:10580000040B04E06950040B01E038D86DB231D0CC
:105810006850010B04E06950010B01E052D8685058
:10582000100B04E06950100B01E024D86850400BC5
:1058300004E06950400B01E039D86850200B04E0C7
:105840006950200B01E034D86850020B04E0695025
:10585000020B01E034D8030E0201FA5D01E209D027
:105860006850080B06E06950080B03E07FEC26F057
:1058700068961200698468986D8212006D9269942E
:10588000689412000201FBA110D0F8DF6D840201C0
:10589000080EFE6F070EFF6F0201FE07000EFF5B92
:1058A0000201FE51FF11F8E16D941200689C120094
:1058B00070A003D007EC28F07090689A12006892EC
:1058C00012006A6A686A9F0E6B6E7B0E696E6E6A62
:1058D0000F0EE66E710EE66E0F0EE66E14D8E552F0
:1058E000E552E552160E706E68A602D06896FCD797
:1058F0006D9807EC28F00201FB910201FC6B02019C
:10590000030EFA6F1200D9CFE6FFE1CFD9FFFD0EEB
:10591000DBCFE9FFFE0EDBCFEAFFFC0EDB5004E03D
:10592000EE6AFC0EDB06F9D7E552E7CFD9FF12008D
:105930001201000200000008D80433000100010237
:105940000302090229000101028032090400000259
:1059500003000000092101000001221D000705814C
:105960000340000107050103400001090220000176
:10597000020480320904000002FF000000070581D4
:10598000034000010705010340000104030904343A
:10599000034D006900630072006F006300680069D6
:1059A000007000200054006500630068006E006F06
:1059B000006C006F0067007900200049006E0063F2
:1059C000002E0048035000490043006B006900743A
:1059D000002000320020004D006900630072006F5B
:1059E0000063006F006E00740072006F006C006C4A
:1059F00000650072002000500072006F00670072A6
:105A00000061006D006D00650072001603500049D2
:105A100000430031003800460032003500350030C8
:105A20000032035000490043006B006900740020FD
:105A3000003200200043006F006E006600690067BE
:105A400000750072006100740069006F006E002034
:105A50000032000600FF0901A101190129401500CB
:105A600026FF00750895408102190129409102C066
:105A700042596B598B598F59C3590B5A215A4E535E
:105A800007C013F006C012F006500B02F4CF05F069
:105A9000F3CF04F007500C02F4CF07F0F3CF06F079
:105AA0000B02F3500526F4500622E86A0722125032
:105AB0000C02F3500526F4500622E86A07220CAEC9
:105AC00066EF2DF01250065E1350075A13AE000C0D
:105AD0000B50065E0C50075A000C06C012F0065020
:105AE0000B02F4CF05F0F3CF04F007500C02F4CF13
:105AF00007F0F3CF06F00B02F3500526F450062210
:105B0000E86A072212500C02F3500526F4500622D0
:105B1000E86A0722000C07C013F006C012F005C0A7
:105B200011F005500A02F4CF03F0F3CF02F0065053
:105B30000B02F4CF05F0F3CF04F00A02F350032672
:105B4000F4500422E86A052211500B02F350032698
:105B5000F4500422E86A052207500A02F350042692
:105B6000F450052207500B02066AE86A0622F35039
:105B70000526F450062211500C02F3500426F4506E
:105B80000522076AE86A0622072212500C02F35027
:105B90000526F4500622E86A072213500C02F3503F
:105BA0000626F4500722000C2A0EF66E200EF76E21
:105BB000000EF86E00010900F550E56F0900F55080
:105BC000E66F03E1E56701D03DD00900F550E06FD5
:105BD0000900F550E16F0900F550E26F0900090076
:105BE000F550E96E0900F550EA6E09000900090058
:105BF000F550E36F0900F550E46F09000900F6CF96
:105C0000E7F0F7CFE8F0F8CFE9F0E0C0F6FFE1C049
:105C1000F7FFE2C0F8FF0001E35302E1E45307E0BD
:105C20000900F550EE6EE307F8E2E407F9D7E7C0A4
:105C3000F6FFE8C0F7FFE9C0F8FF0001E507000E36
:105C4000E65BBFD7120004500902F3CF00F0F4CF97
:105C500001F00A02F3500126000EF420026E0450F7
:105C60000B02F3500226000EF420036E04500C02C7
:105C7000F350032605500902F3500126F450022286
:105C8000000E032205500A02F3500226F4500322AC
:105C900005500B02F350032606500902F35002266A
:105CA000F450032206500A02F3500326075009025B
:105CB000F35003261200FF0EE3502B6EEF0E01D0BF
:105CC000F30EE76EE72E62EF2EF00C0E2A6EE76AF7
:105CD000E72E68EF2EF02A2E67EF2EF02B2E60EFC6
:105CE0002EF0120005D80FD8BEEC10F0FCD7120031
:105CF000140E6F6E0201FA6B0201FB6B0201FC6B6A
:105D00001CEC10F01200DBEC2BF0FBEC2BF0120083
:105D1000FF0EE3502B6E1B0E00D001D0200EE76E5D
:105D2000E72EFED72B2EFAD700D0120013EE00F08C
:105D300023EE00F0F86A0F9CD4EC2DF072EC2EF0FC
:105D4000FDD71200FF0EE350E84E1200000000D015
:105D500000D000D0E82EFAD712000005FFFFFFFFA9
:105D6000FFFFFFFFFFFFFFFFFFFFFFFFFFFFFFFF43
:105D7000FFFFFFFFFFFFFFFFFFFFFFFFFFFFFFFF33
:105D8000FFFFFFFFFFFFFFFFFFFFFFFFFFFFFFFF23
:105D9000FFFFFFFFFFFFFFFFFFFFFFFFFFFFFFFF13
:107FF000FFFFFFFFFFFFFFFFFFFFFFFFFFFF5555E5
:0200000400F00A
:10000000FFFFFFFFFFFFFFFFFFFFFFFFFFFFFFFF00
:10001000FFFFFFFFFFFFFFFFFFFFFFFFFFFFFFFFF0
:10002000FFFFFFFFFFFFFFFFFFFFFFFFFFFFFFFFE0
:10003000FFFFFFFFFFFFFFFFFFFFFFFFFFFFFFFFD0
:10004000FFFFFFFFFFFFFFFFFFFFFFFFFFFFFFFFC0
:10005000FFFFFFFFFFFFFFFFFFFFFFFFFFFFFFFFB0
:10006000FFFFFFFFFFFFFFFFFFFFFFFFFFFFFFFFA0
:10007000FFFFFFFFFFFFFFFFFFFFFFFFFFFFFFFF90
:10008000FFFFFFFFFFFFFFFFFFFFFFFFFFFFFFFF80
:10009000FFFFFFFFFFFFFFFFFFFFFFFFFFFFFFFF70
:1000A000FFFFFFFFFFFFFFFFFFFFFFFFFFFFFFFF60
:1000B000FFFFFFFFFFFFFFFFFFFFFFFFFFFFFFFF50
:1000C000FFFFFFFFFFFFFFFFFFFFFFFFFFFFFFFF40
:1000D000FFFFFFFFFFFFFFFFFFFFFFFFFFFFFFFF30
:1000E000FFFFFFFFFFFFFFFFFFFFFFFFFFFFFFFF20
:1000F000FFFFFFFFFFFFFFFFFFFFFFFFFFFFFFFF10
:020000040030CA
:0E000000240E381E000181000FC00EA00F401C
:020000040020DA
:08000000FFFFFFFFFFFFFFFF00
:00000001FF
